:100000000C9434000C9451000C9451000C94510049
:100010000C9451000C9451000C9451000C9451001C
:100020000C9451000C9483000C9451000C945100DA
:100030000C9451000C9451000C9451000C945100FC
:100040000C9453000C9451000C9451000C945100EA
:100050000C9451000C9451000C9451000C945100DC
:100060000C9451000C94510011241FBECFEFD8E026
:10007000DEBFCDBF11E0A0E0B1E0EAE1F2E002C0F6
:1000800005900D92A230B107D9F721E0A2E0B1E0CE
:1000900001C01D92A630B207E1F70E9401010C9445
:1000A0000B010C9400001F920F920FB60F921124B7
:1000B0002F938F939F93F894809104019091050161
:1000C000823C954074F010920501109204018091D9
:1000D00000019091010121E082279093010180931A
:1000E0000001809104019091050101969093050112
:1000F0008093040178949F918F912F910F900FBE60
:100100000F901F9018951F920F920FB60F92112407
:100110008F939F93F894809102019091030102972D
:1001200034F48FEF90E09093030180930201789470
:100130009F918F910F900FBE0F901F9018958091F7
:10014000000190910101019719F48FEF87BD089587
:1001500017BC089508959093C5008093C40088E16A
:100160008093C1008EE08093C20008959091C000FA
:1001700095FFFCCF8093C60008950F931F93CF93F4
:10018000DF93EC018C01060F171FC017D10721F078
:1001900089910E94B600F9CFDF91CF911F910F9105
:1001A00008950E94BD008AE00C94B6002098289A19
:1001B0008AB184688AB987E690E00E94AB008AB170
:1001C00088648AB9E0EBF0E0808183688083E1EBAA
:1001D000F0E080818560808384B5836884BD85B5C7
:1001E000836085BDE0E7F0E0808181608083EEE69A
:1001F000F0E080818160808317BC1092B400789415
:1002000008950E94D600189B02C05A9AFCCF0E9403
:0A0210009F005A98F8CFF894FFCF32
:02021A000100E1
:00000001FF
